{
    "_format": "hh-sol-artifact-1",
    "contractName": "VideoGram",
    "sourceName": "contracts/VideoGram.sol",
    "abi": [
        {
            "inputs": [],
            "stateMutability": "nonpayable",
            "type": "constructor"
        },
        {
            "anonymous": false,
            "inputs": [
                {
                    "indexed": false,
                    "internalType": "uint256",
                    "name": "id",
                    "type": "uint256"
                },
                {
                    "indexed": false,
                    "internalType": "string",
                    "name": "hash",
                    "type": "string"
                },
                {
                    "indexed": false,
                    "internalType": "string",
                    "name": "title",
                    "type": "string"
                },
                {
                    "indexed": false,
                    "internalType": "string",
                    "name": "description",
                    "type": "string"
                },
                {
                    "indexed": false,
                    "internalType": "string",
                    "name": "location",
                    "type": "string"
                },
                {
                    "indexed": false,
                    "internalType": "string",
                    "name": "category",
                    "type": "string"
                },
                {
                    "indexed": false,
                    "internalType": "string",
                    "name": "thumbnailHash",
                    "type": "string"
                },
                {
                    "indexed": false,
                    "internalType": "string",
                    "name": "date",
                    "type": "string"
                },
                {
                    "indexed": false,
                    "internalType": "address",
                    "name": "author",
                    "type": "address"
                }
            ],
            "name": "VideoUploaded",
            "type": "event"
        },
        {
            "inputs": [],
            "name": "name",
            "outputs": [
                {
                    "internalType": "string",
                    "name": "",
                    "type": "string"
                }
            ],
            "stateMutability": "view",
            "type": "function"
        },
        {
            "inputs": [
                {
                    "internalType": "address payable",
                    "name": "videoAuthor",
                    "type": "address"
                }
            ],
            "name": "tipToOwner",
            "outputs": [],
            "stateMutability": "payable",
            "type": "function"
        },
        {
            "inputs": [
                {
                    "internalType": "string",
                    "name": "_videoHash",
                    "type": "string"
                },
                {
                    "internalType": "string",
                    "name": "_title",
                    "type": "string"
                },
                {
                    "internalType": "string",
                    "name": "_description",
                    "type": "string"
                },
                {
                    "internalType": "string",
                    "name": "_location",
                    "type": "string"
                },
                {
                    "internalType": "string",
                    "name": "_category",
                    "type": "string"
                },
                {
                    "internalType": "string",
                    "name": "_thumbnailHash",
                    "type": "string"
                },
                {
                    "internalType": "string",
                    "name": "_date",
                    "type": "string"
                }
            ],
            "name": "uploadVideo",
            "outputs": [],
            "stateMutability": "nonpayable",
            "type": "function"
        },
        {
            "inputs": [],
            "name": "videoCount",
            "outputs": [
                {
                    "internalType": "uint256",
                    "name": "",
                    "type": "uint256"
                }
            ],
            "stateMutability": "view",
            "type": "function"
        },
        {
            "inputs": [
                {
                    "internalType": "uint256",
                    "name": "",
                    "type": "uint256"
                }
            ],
            "name": "videos",
            "outputs": [
                {
                    "internalType": "uint256",
                    "name": "id",
                    "type": "uint256"
                },
                {
                    "internalType": "string",
                    "name": "hash",
                    "type": "string"
                },
                {
                    "internalType": "string",
                    "name": "title",
                    "type": "string"
                },
                {
                    "internalType": "string",
                    "name": "description",
                    "type": "string"
                },
                {
                    "internalType": "string",
                    "name": "location",
                    "type": "string"
                },
                {
                    "internalType": "string",
                    "name": "category",
                    "type": "string"
                },
                {
                    "internalType": "string",
                    "name": "thumbnailHash",
                    "type": "string"
                },
                {
                    "internalType": "string",
                    "name": "date",
                    "type": "string"
                },
                {
                    "internalType": "address",
                    "name": "author",
                    "type": "address"
                }
            ],
            "stateMutability": "view",
            "type": "function"
        }
    ],
    "bytecode": "0x6080604052600080556040518060400160405280600981526020017f566964656f4772616d000000000000000000000000000000000000000000000081525060019080519060200190620000559291906200006a565b503480156200006357600080fd5b506200017f565b828054620000789062000149565b90600052602060002090601f0160209004810192826200009c5760008555620000e8565b82601f10620000b757805160ff1916838001178555620000e8565b82800160010185558215620000e8579182015b82811115620000e7578251825591602001919060010190620000ca565b5b509050620000f79190620000fb565b5090565b5b8082111562000116576000816000905550600101620000fc565b5090565b7f4e487b7100000000000000000000000000000000000000000000000000000000600052602260045260246000fd5b600060028204905060018216806200016257607f821691505b602082108114156200017957620001786200011a565b5b50919050565b611040806200018f6000396000f3fe60806040526004361061004a5760003560e01c806306fdde031461004f5780638d2a657f1461007a578063a1df8fa414610096578063c61b5f4c146100bf578063e6821bf5146100ea575b600080fd5b34801561005b57600080fd5b5061006461012f565b60405161007191906109fd565b60405180910390f35b610094600480360381019061008f9190610a91565b6101bd565b005b3480156100a257600080fd5b506100bd60048036038101906100b89190610bf3565b61024a565b005b3480156100cb57600080fd5b506100d4610495565b6040516100e19190610d72565b60405180910390f35b3480156100f657600080fd5b50610111600480360381019061010c9190610db9565b61049b565b60405161012699989796959493929190610e07565b60405180910390f35b6001805461013c90610ef4565b80601f016020809104026020016040519081016040528092919081815260200182805461016890610ef4565b80156101b55780601f1061018a576101008083540402835291602001916101b5565b820191906000526020600020905b81548152906001019060200180831161019857829003601f168201915b505050505081565b60003411610200576040517f08c379a00000000000000000000000000000000000000000000000000000000081526004016101f790610f72565b60405180910390fd5b8073ffffffffffffffffffffffffffffffffffffffff166108fc349081150290604051600060405180830381858888f19350505050158015610246573d6000803e3d6000fd5b5050565b600087511161025857600080fd5b600086511161026657600080fd5b600073ffffffffffffffffffffffffffffffffffffffff163373ffffffffffffffffffffffffffffffffffffffff1614156102a057600080fd5b6000808154809291906102b290610fc1565b919050555060405180610120016040528060005481526020018881526020018781526020018681526020018581526020018481526020018381526020018281526020013373ffffffffffffffffffffffffffffffffffffffff1681525060026000805481526020019081526020016000206000820151816000015560208201518160010190805190602001906103499291906108c1565b5060408201518160020190805190602001906103669291906108c1565b5060608201518160030190805190602001906103839291906108c1565b5060808201518160040190805190602001906103a09291906108c1565b5060a08201518160050190805190602001906103bd9291906108c1565b5060c08201518160060190805190602001906103da9291906108c1565b5060e08201518160070190805190602001906103f79291906108c1565b506101008201518160080160006101000a81548173ffffffffffffffffffffffffffffffffffffffff021916908373ffffffffffffffffffffffffffffffffffffffff1602179055509050507f0b0639108adcb9c8f8ce68f9c4abb1e07cd8fa50cc559b5a55a875a79b579f46600054888888888888883360405161048499989796959493929190610e07565b60405180910390a150505050505050565b60005481565b60026020528060005260406000206000915090508060000154908060010180546104c490610ef4565b80601f01602080910402602001604051908101604052809291908181526020018280546104f090610ef4565b801561053d5780601f106105125761010080835404028352916020019161053d565b820191906000526020600020905b81548152906001019060200180831161052057829003601f168201915b50505050509080600201805461055290610ef4565b80601f016020809104026020016040519081016040528092919081815260200182805461057e90610ef4565b80156105cb5780601f106105a0576101008083540402835291602001916105cb565b820191906000526020600020905b8154815290600101906020018083116105ae57829003601f168201915b5050505050908060030180546105e090610ef4565b80601f016020809104026020016040519081016040528092919081815260200182805461060c90610ef4565b80156106595780601f1061062e57610100808354040283529160200191610659565b820191906000526020600020905b81548152906001019060200180831161063c57829003601f168201915b50505050509080600401805461066e90610ef4565b80601f016020809104026020016040519081016040528092919081815260200182805461069a90610ef4565b80156106e75780601f106106bc576101008083540402835291602001916106e7565b820191906000526020600020905b8154815290600101906020018083116106ca57829003601f168201915b5050505050908060050180546106fc90610ef4565b80601f016020809104026020016040519081016040528092919081815260200182805461072890610ef4565b80156107755780601f1061074a57610100808354040283529160200191610775565b820191906000526020600020905b81548152906001019060200180831161075857829003601f168201915b50505050509080600601805461078a90610ef4565b80601f01602080910402602001604051908101604052809291908181526020018280546107b690610ef4565b80156108035780601f106107d857610100808354040283529160200191610803565b820191906000526020600020905b8154815290600101906020018083116107e657829003601f168201915b50505050509080600701805461081890610ef4565b80601f016020809104026020016040519081016040528092919081815260200182805461084490610ef4565b80156108915780601f1061086657610100808354040283529160200191610891565b820191906000526020600020905b81548152906001019060200180831161087457829003601f168201915b5050505050908060080160009054906101000a900473ffffffffffffffffffffffffffffffffffffffff16905089565b8280546108cd90610ef4565b90600052602060002090601f0160209004810192826108ef5760008555610936565b82601f1061090857805160ff1916838001178555610936565b82800160010185558215610936579182015b8281111561093557825182559160200191906001019061091a565b5b5090506109439190610947565b5090565b5b80821115610960576000816000905550600101610948565b5090565b600081519050919050565b600082825260208201905092915050565b60005b8381101561099e578082015181840152602081019050610983565b838111156109ad576000848401525b50505050565b6000601f19601f8301169050919050565b60006109cf82610964565b6109d9818561096f565b93506109e9818560208601610980565b6109f2816109b3565b840191505092915050565b60006020820190508181036000830152610a1781846109c4565b905092915050565b6000604051905090565b600080fd5b600080fd5b600073ffffffffffffffffffffffffffffffffffffffff82169050919050565b6000610a5e82610a33565b9050919050565b610a6e81610a53565b8114610a7957600080fd5b50565b600081359050610a8b81610a65565b92915050565b600060208284031215610aa757610aa6610a29565b5b6000610ab584828501610a7c565b91505092915050565b600080fd5b600080fd5b7f4e487b7100000000000000000000000000000000000000000000000000000000600052604160045260246000fd5b610b00826109b3565b810181811067ffffffffffffffff82111715610b1f57610b1e610ac8565b5b80604052505050565b6000610b32610a1f565b9050610b3e8282610af7565b919050565b600067ffffffffffffffff821115610b5e57610b5d610ac8565b5b610b67826109b3565b9050602081019050919050565b82818337600083830152505050565b6000610b96610b9184610b43565b610b28565b905082815260208101848484011115610bb257610bb1610ac3565b5b610bbd848285610b74565b509392505050565b600082601f830112610bda57610bd9610abe565b5b8135610bea848260208601610b83565b91505092915050565b600080600080600080600060e0888a031215610c1257610c11610a29565b5b600088013567ffffffffffffffff811115610c3057610c2f610a2e565b5b610c3c8a828b01610bc5565b975050602088013567ffffffffffffffff811115610c5d57610c5c610a2e565b5b610c698a828b01610bc5565b965050604088013567ffffffffffffffff811115610c8a57610c89610a2e565b5b610c968a828b01610bc5565b955050606088013567ffffffffffffffff811115610cb757610cb6610a2e565b5b610cc38a828b01610bc5565b945050608088013567ffffffffffffffff811115610ce457610ce3610a2e565b5b610cf08a828b01610bc5565b93505060a088013567ffffffffffffffff811115610d1157610d10610a2e565b5b610d1d8a828b01610bc5565b92505060c088013567ffffffffffffffff811115610d3e57610d3d610a2e565b5b610d4a8a828b01610bc5565b91505092959891949750929550565b6000819050919050565b610d6c81610d59565b82525050565b6000602082019050610d876000830184610d63565b92915050565b610d9681610d59565b8114610da157600080fd5b50565b600081359050610db381610d8d565b92915050565b600060208284031215610dcf57610dce610a29565b5b6000610ddd84828501610da4565b91505092915050565b6000610df182610a33565b9050919050565b610e0181610de6565b82525050565b600061012082019050610e1d600083018c610d63565b8181036020830152610e2f818b6109c4565b90508181036040830152610e43818a6109c4565b90508181036060830152610e5781896109c4565b90508181036080830152610e6b81886109c4565b905081810360a0830152610e7f81876109c4565b905081810360c0830152610e9381866109c4565b905081810360e0830152610ea781856109c4565b9050610eb7610100830184610df8565b9a9950505050505050505050565b7f4e487b7100000000000000000000000000000000000000000000000000000000600052602260045260246000fd5b60006002820490506001821680610f0c57607f821691505b60208210811415610f2057610f1f610ec5565b5b50919050565b7f506c732073656e64206d6f7265207468616e20302e303031204d415449430000600082015250565b6000610f5c601e8361096f565b9150610f6782610f26565b602082019050919050565b60006020820190508181036000830152610f8b81610f4f565b9050919050565b7f4e487b7100000000000000000000000000000000000000000000000000000000600052601160045260246000fd5b6000610fcc82610d59565b91507fffffffffffffffffffffffffffffffffffffffffffffffffffffffffffffffff821415610fff57610ffe610f92565b5b60018201905091905056fea2646970667358221220166e60d8c10097e05f45383bb9b3fdebd74056ef60cf8e6bfefc066b02cdde8764736f6c63430008090033",
    "linkReferences": {},
    "deployedLinkReferences": {}
}